{
  "_format": "hh-sol-artifact-1",
  "contractName": "RandomIpfsNft",
  "sourceName": "contracts/RandomIpfsNft.sol",
  "abi": [
    {
      "inputs": [
        {
          "internalType": "address",
          "name": "vrfCoordinatorV2",
          "type": "address"
        },
        {
          "internalType": "uint64",
          "name": "subscriptionId",
          "type": "uint64"
        },
        {
          "internalType": "bytes32",
          "name": "gasLane",
          "type": "bytes32"
        },
        {
          "internalType": "uint32",
          "name": "callbackGasLimit",
          "type": "uint32"
        },
        {
          "internalType": "string[3]",
          "name": "dogTokenUris",
          "type": "string[3]"
        },
        {
          "internalType": "uint256",
          "name": "mintFee",
          "type": "uint256"
        }
      ],
      "stateMutability": "nonpayable",
      "type": "constructor"
    },
    {
      "inputs": [
        {
          "internalType": "address",
          "name": "have",
          "type": "address"
        },
        {
          "internalType": "address",
          "name": "want",
          "type": "address"
        }
      ],
      "name": "OnlyCoordinatorCanFulfill",
      "type": "error"
    },
    {
      "inputs": [],
      "name": "RandomIpfsNft__NeedMoreETHSent",
      "type": "error"
    },
    {
      "inputs": [],
      "name": "RandomIpfsNft__RangeOutofBounds",
      "type": "error"
    },
    {
      "inputs": [],
      "name": "RandomIpfsNft__TransferFailed",
      "type": "error"
    },
    {
      "anonymous": false,
      "inputs": [
        {
          "indexed": true,
          "internalType": "address",
          "name": "owner",
          "type": "address"
        },
        {
          "indexed": true,
          "internalType": "address",
          "name": "approved",
          "type": "address"
        },
        {
          "indexed": true,
          "internalType": "uint256",
          "name": "tokenId",
          "type": "uint256"
        }
      ],
      "name": "Approval",
      "type": "event"
    },
    {
      "anonymous": false,
      "inputs": [
        {
          "indexed": true,
          "internalType": "address",
          "name": "owner",
          "type": "address"
        },
        {
          "indexed": true,
          "internalType": "address",
          "name": "operator",
          "type": "address"
        },
        {
          "indexed": false,
          "internalType": "bool",
          "name": "approved",
          "type": "bool"
        }
      ],
      "name": "ApprovalForAll",
      "type": "event"
    },
    {
      "anonymous": false,
      "inputs": [
        {
          "indexed": false,
          "internalType": "enum RandomIpfsNft.Breed",
          "name": "dogBreed",
          "type": "uint8"
        },
        {
          "indexed": false,
          "internalType": "address",
          "name": "minter",
          "type": "address"
        }
      ],
      "name": "NftMinted",
      "type": "event"
    },
    {
      "anonymous": false,
      "inputs": [
        {
          "indexed": true,
          "internalType": "uint256",
          "name": "requestId",
          "type": "uint256"
        },
        {
          "indexed": false,
          "internalType": "address",
          "name": "requester",
          "type": "address"
        }
      ],
      "name": "NftRequested",
      "type": "event"
    },
    {
      "anonymous": false,
      "inputs": [
        {
          "indexed": true,
          "internalType": "address",
          "name": "previousOwner",
          "type": "address"
        },
        {
          "indexed": true,
          "internalType": "address",
          "name": "newOwner",
          "type": "address"
        }
      ],
      "name": "OwnershipTransferred",
      "type": "event"
    },
    {
      "anonymous": false,
      "inputs": [
        {
          "indexed": true,
          "internalType": "address",
          "name": "from",
          "type": "address"
        },
        {
          "indexed": true,
          "internalType": "address",
          "name": "to",
          "type": "address"
        },
        {
          "indexed": true,
          "internalType": "uint256",
          "name": "tokenId",
          "type": "uint256"
        }
      ],
      "name": "Transfer",
      "type": "event"
    },
    {
      "inputs": [
        {
          "internalType": "address",
          "name": "to",
          "type": "address"
        },
        {
          "internalType": "uint256",
          "name": "tokenId",
          "type": "uint256"
        }
      ],
      "name": "approve",
      "outputs": [],
      "stateMutability": "nonpayable",
      "type": "function"
    },
    {
      "inputs": [
        {
          "internalType": "address",
          "name": "owner",
          "type": "address"
        }
      ],
      "name": "balanceOf",
      "outputs": [
        {
          "internalType": "uint256",
          "name": "",
          "type": "uint256"
        }
      ],
      "stateMutability": "view",
      "type": "function"
    },
    {
      "inputs": [
        {
          "internalType": "uint256",
          "name": "tokenId",
          "type": "uint256"
        }
      ],
      "name": "getApproved",
      "outputs": [
        {
          "internalType": "address",
          "name": "",
          "type": "address"
        }
      ],
      "stateMutability": "view",
      "type": "function"
    },
    {
      "inputs": [
        {
          "internalType": "uint256",
          "name": "moddedRng",
          "type": "uint256"
        }
      ],
      "name": "getBreedFromModdedRng",
      "outputs": [
        {
          "internalType": "enum RandomIpfsNft.Breed",
          "name": "",
          "type": "uint8"
        }
      ],
      "stateMutability": "pure",
      "type": "function"
    },
    {
      "inputs": [],
      "name": "getChanceArray",
      "outputs": [
        {
          "internalType": "uint256[3]",
          "name": "",
          "type": "uint256[3]"
        }
      ],
      "stateMutability": "pure",
      "type": "function"
    },
    {
      "inputs": [],
      "name": "getTokenCounter",
      "outputs": [
        {
          "internalType": "uint256",
          "name": "",
          "type": "uint256"
        }
      ],
      "stateMutability": "view",
      "type": "function"
    },
    {
      "inputs": [
        {
          "internalType": "address",
          "name": "owner",
          "type": "address"
        },
        {
          "internalType": "address",
          "name": "operator",
          "type": "address"
        }
      ],
      "name": "isApprovedForAll",
      "outputs": [
        {
          "internalType": "bool",
          "name": "",
          "type": "bool"
        }
      ],
      "stateMutability": "view",
      "type": "function"
    },
    {
      "inputs": [],
      "name": "name",
      "outputs": [
        {
          "internalType": "string",
          "name": "",
          "type": "string"
        }
      ],
      "stateMutability": "view",
      "type": "function"
    },
    {
      "inputs": [],
      "name": "owner",
      "outputs": [
        {
          "internalType": "address",
          "name": "",
          "type": "address"
        }
      ],
      "stateMutability": "view",
      "type": "function"
    },
    {
      "inputs": [
        {
          "internalType": "uint256",
          "name": "tokenId",
          "type": "uint256"
        }
      ],
      "name": "ownerOf",
      "outputs": [
        {
          "internalType": "address",
          "name": "",
          "type": "address"
        }
      ],
      "stateMutability": "view",
      "type": "function"
    },
    {
      "inputs": [
        {
          "internalType": "uint256",
          "name": "requestId",
          "type": "uint256"
        },
        {
          "internalType": "uint256[]",
          "name": "randomWords",
          "type": "uint256[]"
        }
      ],
      "name": "rawFulfillRandomWords",
      "outputs": [],
      "stateMutability": "nonpayable",
      "type": "function"
    },
    {
      "inputs": [],
      "name": "renounceOwnership",
      "outputs": [],
      "stateMutability": "nonpayable",
      "type": "function"
    },
    {
      "inputs": [],
      "name": "requestNft",
      "outputs": [
        {
          "internalType": "uint256",
          "name": "requestId",
          "type": "uint256"
        }
      ],
      "stateMutability": "payable",
      "type": "function"
    },
    {
      "inputs": [
        {
          "internalType": "uint256",
          "name": "",
          "type": "uint256"
        }
      ],
      "name": "s_requestIdToSender",
      "outputs": [
        {
          "internalType": "address",
          "name": "",
          "type": "address"
        }
      ],
      "stateMutability": "view",
      "type": "function"
    },
    {
      "inputs": [],
      "name": "s_tokenCounter",
      "outputs": [
        {
          "internalType": "uint256",
          "name": "",
          "type": "uint256"
        }
      ],
      "stateMutability": "view",
      "type": "function"
    },
    {
      "inputs": [
        {
          "internalType": "address",
          "name": "from",
          "type": "address"
        },
        {
          "internalType": "address",
          "name": "to",
          "type": "address"
        },
        {
          "internalType": "uint256",
          "name": "tokenId",
          "type": "uint256"
        }
      ],
      "name": "safeTransferFrom",
      "outputs": [],
      "stateMutability": "nonpayable",
      "type": "function"
    },
    {
      "inputs": [
        {
          "internalType": "address",
          "name": "from",
          "type": "address"
        },
        {
          "internalType": "address",
          "name": "to",
          "type": "address"
        },
        {
          "internalType": "uint256",
          "name": "tokenId",
          "type": "uint256"
        },
        {
          "internalType": "bytes",
          "name": "data",
          "type": "bytes"
        }
      ],
      "name": "safeTransferFrom",
      "outputs": [],
      "stateMutability": "nonpayable",
      "type": "function"
    },
    {
      "inputs": [
        {
          "internalType": "address",
          "name": "operator",
          "type": "address"
        },
        {
          "internalType": "bool",
          "name": "approved",
          "type": "bool"
        }
      ],
      "name": "setApprovalForAll",
      "outputs": [],
      "stateMutability": "nonpayable",
      "type": "function"
    },
    {
      "inputs": [
        {
          "internalType": "bytes4",
          "name": "interfaceId",
          "type": "bytes4"
        }
      ],
      "name": "supportsInterface",
      "outputs": [
        {
          "internalType": "bool",
          "name": "",
          "type": "bool"
        }
      ],
      "stateMutability": "view",
      "type": "function"
    },
    {
      "inputs": [],
      "name": "symbol",
      "outputs": [
        {
          "internalType": "string",
          "name": "",
          "type": "string"
        }
      ],
      "stateMutability": "view",
      "type": "function"
    },
    {
      "inputs": [
        {
          "internalType": "uint256",
          "name": "tokenId",
          "type": "uint256"
        }
      ],
      "name": "tokenURI",
      "outputs": [
        {
          "internalType": "string",
          "name": "",
          "type": "string"
        }
      ],
      "stateMutability": "view",
      "type": "function"
    },
    {
      "inputs": [
        {
          "internalType": "address",
          "name": "from",
          "type": "address"
        },
        {
          "internalType": "address",
          "name": "to",
          "type": "address"
        },
        {
          "internalType": "uint256",
          "name": "tokenId",
          "type": "uint256"
        }
      ],
      "name": "transferFrom",
      "outputs": [],
      "stateMutability": "nonpayable",
      "type": "function"
    },
    {
      "inputs": [
        {
          "internalType": "address",
          "name": "newOwner",
          "type": "address"
        }
      ],
      "name": "transferOwnership",
      "outputs": [],
      "stateMutability": "nonpayable",
      "type": "function"
    },
    {
      "inputs": [],
      "name": "withdraw",
      "outputs": [
        {
          "internalType": "uint256",
          "name": "",
          "type": "uint256"
        }
      ],
      "stateMutability": "nonpayable",
      "type": "function"
    }
  ],
  "bytecode": "0x6101206040523480156200001257600080fd5b50604051620043e0380380620043e0833981810160405281019062000038919062000809565b6040518060400160405280600f81526020017f52616e646f6d2049504653204e465400000000000000000000000000000000008152506040518060400160405280600381526020017f52494e0000000000000000000000000000000000000000000000000000000000815250878073ffffffffffffffffffffffffffffffffffffffff1660808173ffffffffffffffffffffffffffffffffffffffff1660601b81525050508160009080519060200190620000f59291906200029c565b5080600190805190602001906200010e9291906200029c565b5050506200013162000125620001ce60201b60201c565b620001d660201b60201c565b8573ffffffffffffffffffffffffffffffffffffffff1660a08173ffffffffffffffffffffffffffffffffffffffff1660601b815250508467ffffffffffffffff1660c08167ffffffffffffffff1660c01b815250508360e081815250508263ffffffff166101008163ffffffff1660e01b8152505081600a906003620001ba9291906200032d565b5080600b8190555050505050505062000929565b600033905090565b6000600760009054906101000a900473ffffffffffffffffffffffffffffffffffffffff16905081600760006101000a81548173ffffffffffffffffffffffffffffffffffffffff021916908373ffffffffffffffffffffffffffffffffffffffff1602179055508173ffffffffffffffffffffffffffffffffffffffff168173ffffffffffffffffffffffffffffffffffffffff167f8be0079c531659141344cd1fd0a4f28419497f9722a3daafe3b4186f6b6457e060405160405180910390a35050565b828054620002aa90620008f3565b90600052602060002090601f016020900481019282620002ce57600085556200031a565b82601f10620002e957805160ff19168380011785556200031a565b828001600101855582156200031a579182015b8281111562000319578251825591602001919060010190620002fc565b5b50905062000329919062000394565b5090565b82805482825590600052602060002090810192821562000381579160200282015b82811115620003805782518290805190602001906200036f9291906200029c565b50916020019190600101906200034e565b5b509050620003909190620003b3565b5090565b5b80821115620003af57600081600090555060010162000395565b5090565b5b80821115620003d75760008181620003cd9190620003db565b50600101620003b4565b5090565b508054620003e990620008f3565b6000825580601f10620003fd57506200041e565b601f0160209004906000526020600020908101906200041d919062000394565b5b50565b6000604051905090565b600080fd5b600080fd5b600073ffffffffffffffffffffffffffffffffffffffff82169050919050565b6000620004628262000435565b9050919050565b620004748162000455565b81146200048057600080fd5b50565b600081519050620004948162000469565b92915050565b600067ffffffffffffffff82169050919050565b620004b9816200049a565b8114620004c557600080fd5b50565b600081519050620004d981620004ae565b92915050565b6000819050919050565b620004f481620004df565b81146200050057600080fd5b50565b6000815190506200051481620004e9565b92915050565b600063ffffffff82169050919050565b62000535816200051a565b81146200054157600080fd5b50565b60008151905062000555816200052a565b92915050565b600080fd5b6000601f19601f8301169050919050565b7f4e487b7100000000000000000000000000000000000000000000000000000000600052604160045260246000fd5b620005ab8262000560565b810181811067ffffffffffffffff82111715620005cd57620005cc62000571565b5b80604052505050565b6000620005e262000421565b9050620005f08282620005a0565b919050565b600067ffffffffffffffff82111562000613576200061262000571565b5b602082029050919050565b600080fd5b600080fd5b600067ffffffffffffffff82111562000646576200064562000571565b5b620006518262000560565b9050602081019050919050565b60005b838110156200067e57808201518184015260208101905062000661565b838111156200068e576000848401525b50505050565b6000620006ab620006a58462000628565b620005d6565b905082815260208101848484011115620006ca57620006c962000623565b5b620006d78482856200065e565b509392505050565b600082601f830112620006f757620006f66200055b565b5b81516200070984826020860162000694565b91505092915050565b6000620007296200072384620005f5565b620005d6565b905080602084028301858111156200074657620007456200061e565b5b835b818110156200079457805167ffffffffffffffff8111156200076f576200076e6200055b565b5b8086016200077e8982620006df565b8552602085019450505060208101905062000748565b5050509392505050565b600082601f830112620007b657620007b56200055b565b5b6003620007c584828562000712565b91505092915050565b6000819050919050565b620007e381620007ce565b8114620007ef57600080fd5b50565b6000815190506200080381620007d8565b92915050565b60008060008060008060c087890312156200082957620008286200042b565b5b60006200083989828a0162000483565b96505060206200084c89828a01620004c8565b95505060406200085f89828a0162000503565b94505060606200087289828a0162000544565b935050608087015167ffffffffffffffff81111562000896576200089562000430565b5b620008a489828a016200079e565b92505060a0620008b789828a01620007f2565b9150509295509295509295565b7f4e487b7100000000000000000000000000000000000000000000000000000000600052602260045260246000fd5b600060028204905060018216806200090c57607f821691505b60208210811415620009235762000922620008c4565b5b50919050565b60805160601c60a05160601c60c05160c01c60e0516101005160e01c613a5f620009816000396000610eae01526000610e6a01526000610e8b01526000610e2e01526000818161089301526108e70152613a5f6000f3fe60806040526004361061014b5760003560e01c806370a08231116100b6578063a51cccf31161006f578063a51cccf314610492578063aa152491146104cf578063b88d4fde146104ed578063c87b56dd14610516578063e985e9c514610553578063f2fde38b146105905761014b565b806370a0823114610382578063715018a6146103bf5780638da5cb5b146103d657806395d89b4114610401578063a22cb4651461042c578063a36f573b146104555761014b565b806323b872dd1161010857806323b872dd146102725780633ccfd60b1461029b57806342842e0e146102c65780635dacf5f4146102ef5780636352211e1461031a5780636e02007d146103575761014b565b806301ffc9a71461015057806306fdde031461018d578063081812fc146101b8578063095ea7b3146101f55780630b21a83b1461021e5780631fe543e314610249575b600080fd5b34801561015c57600080fd5b506101776004803603810190610172919061263e565b6105b9565b6040516101849190612686565b60405180910390f35b34801561019957600080fd5b506101a261069b565b6040516101af919061273a565b60405180910390f35b3480156101c457600080fd5b506101df60048036038101906101da9190612792565b61072d565b6040516101ec9190612800565b60405180910390f35b34801561020157600080fd5b5061021c60048036038101906102179190612847565b610773565b005b34801561022a57600080fd5b5061023361088b565b6040516102409190612896565b60405180910390f35b34801561025557600080fd5b50610270600480360381019061026b91906129f9565b610891565b005b34801561027e57600080fd5b5061029960048036038101906102949190612a55565b610951565b005b3480156102a757600080fd5b506102b06109b1565b6040516102bd9190612896565b60405180910390f35b3480156102d257600080fd5b506102ed60048036038101906102e89190612a55565b610a5f565b005b3480156102fb57600080fd5b50610304610a7f565b6040516103119190612b53565b60405180910390f35b34801561032657600080fd5b50610341600480360381019061033c9190612792565b610aaa565b60405161034e9190612800565b60405180910390f35b34801561036357600080fd5b5061036c610b31565b6040516103799190612896565b60405180910390f35b34801561038e57600080fd5b506103a960048036038101906103a49190612b6e565b610b3b565b6040516103b69190612896565b60405180910390f35b3480156103cb57600080fd5b506103d4610bf3565b005b3480156103e257600080fd5b506103eb610c07565b6040516103f89190612800565b60405180910390f35b34801561040d57600080fd5b50610416610c31565b604051610423919061273a565b60405180910390f35b34801561043857600080fd5b50610453600480360381019061044e9190612bc7565b610cc3565b005b34801561046157600080fd5b5061047c60048036038101906104779190612792565b610cd9565b6040516104899190612800565b60405180910390f35b34801561049e57600080fd5b506104b960048036038101906104b49190612792565b610d0c565b6040516104c69190612c7e565b60405180910390f35b6104d7610dee565b6040516104e49190612896565b60405180910390f35b3480156104f957600080fd5b50610514600480360381019061050f9190612d4e565b610fd0565b005b34801561052257600080fd5b5061053d60048036038101906105389190612792565b611032565b60405161054a919061273a565b60405180910390f35b34801561055f57600080fd5b5061057a60048036038101906105759190612dd1565b611145565b6040516105879190612686565b60405180910390f35b34801561059c57600080fd5b506105b760048036038101906105b29190612b6e565b6111d9565b005b60007f80ac58cd000000000000000000000000000000000000000000000000000000007bffffffffffffffffffffffffffffffffffffffffffffffffffffffff1916827bffffffffffffffffffffffffffffffffffffffffffffffffffffffff1916148061068457507f5b5e139f000000000000000000000000000000000000000000000000000000007bffffffffffffffffffffffffffffffffffffffffffffffffffffffff1916827bffffffffffffffffffffffffffffffffffffffffffffffffffffffff1916145b8061069457506106938261125d565b5b9050919050565b6060600080546106aa90612e40565b80601f01602080910402602001604051908101604052809291908181526020018280546106d690612e40565b80156107235780601f106106f857610100808354040283529160200191610723565b820191906000526020600020905b81548152906001019060200180831161070657829003601f168201915b5050505050905090565b6000610738826112c7565b6004600083815260200190815260200160002060009054906101000a900473ffffffffffffffffffffffffffffffffffffffff169050919050565b600061077e82610aaa565b90508073ffffffffffffffffffffffffffffffffffffffff168373ffffffffffffffffffffffffffffffffffffffff1614156107ef576040517f08c379a00000000000000000000000000000000000000000000000000000000081526004016107e690612ee4565b60405180910390fd5b8073ffffffffffffffffffffffffffffffffffffffff1661080e611312565b73ffffffffffffffffffffffffffffffffffffffff16148061083d575061083c81610837611312565b611145565b5b61087c576040517f08c379a000000000000000000000000000000000000000000000000000000000815260040161087390612f76565b60405180910390fd5b610886838361131a565b505050565b60095481565b7f000000000000000000000000000000000000000000000000000000000000000073ffffffffffffffffffffffffffffffffffffffff163373ffffffffffffffffffffffffffffffffffffffff161461094357337f00000000000000000000000000000000000000000000000000000000000000006040517f1cf993f400000000000000000000000000000000000000000000000000000000815260040161093a929190612f96565b60405180910390fd5b61094d82826113d3565b5050565b61096261095c611312565b82611558565b6109a1576040517f08c379a000000000000000000000000000000000000000000000000000000000815260040161099890613031565b60405180910390fd5b6109ac8383836115ed565b505050565b60008047905060003373ffffffffffffffffffffffffffffffffffffffff16826040516109dd90613082565b60006040518083038185875af1925050503d8060008114610a1a576040519150601f19603f3d011682016040523d82523d6000602084013e610a1f565b606091505b5050905080610a5a576040517fca7e25b700000000000000000000000000000000000000000000000000000000815260040160405180910390fd5b505090565b610a7a83838360405180602001604052806000815250610fd0565b505050565b610a8761250d565b6040518060600160405280600a8152602001601e81526020016064815250905090565b600080610ab6836118e7565b9050600073ffffffffffffffffffffffffffffffffffffffff168173ffffffffffffffffffffffffffffffffffffffff161415610b28576040517f08c379a0000000000000000000000000000000000000000000000000000000008152600401610b1f906130e3565b60405180910390fd5b80915050919050565b6000600954905090565b60008073ffffffffffffffffffffffffffffffffffffffff168273ffffffffffffffffffffffffffffffffffffffff161415610bac576040517f08c379a0000000000000000000000000000000000000000000000000000000008152600401610ba390613175565b60405180910390fd5b600360008373ffffffffffffffffffffffffffffffffffffffff1673ffffffffffffffffffffffffffffffffffffffff168152602001908152602001600020549050919050565b610bfb611924565b610c0560006119a2565b565b6000600760009054906101000a900473ffffffffffffffffffffffffffffffffffffffff16905090565b606060018054610c4090612e40565b80601f0160208091040260200160405190810160405280929190818152602001828054610c6c90612e40565b8015610cb95780601f10610c8e57610100808354040283529160200191610cb9565b820191906000526020600020905b815481529060010190602001808311610c9c57829003601f168201915b5050505050905090565b610cd5610cce611312565b8383611a68565b5050565b60086020528060005260406000206000915054906101000a900473ffffffffffffffffffffffffffffffffffffffff1681565b600080600090506000610d1d610a7f565b905060005b6003811015610db657828510158015610d5c5750818160038110610d4957610d48613195565b5b602002015183610d5991906131f3565b85105b15610d7e57806002811115610d7457610d73612c07565b5b9350505050610de9565b818160038110610d9157610d90613195565b5b602002015183610da191906131f3565b92508080610dae90613249565b915050610d22565b506040517f90efc53100000000000000000000000000000000000000000000000000000000815260040160405180910390fd5b919050565b6000600b54341015610e2c576040517fb90f491000000000000000000000000000000000000000000000000000000000815260040160405180910390fd5b7f000000000000000000000000000000000000000000000000000000000000000073ffffffffffffffffffffffffffffffffffffffff16635d3b1d307f00000000000000000000000000000000000000000000000000000000000000007f000000000000000000000000000000000000000000000000000000000000000060037f000000000000000000000000000000000000000000000000000000000000000060646040518663ffffffff1660e01b8152600401610eef95949392919061330a565b602060405180830381600087803b158015610f0957600080fd5b505af1158015610f1d573d6000803e3d6000fd5b505050506040513d601f19601f82011682018060405250810190610f419190613372565b9050336008600083815260200190815260200160002060006101000a81548173ffffffffffffffffffffffffffffffffffffffff021916908373ffffffffffffffffffffffffffffffffffffffff160217905550807ff873236e6cc0ecc5be1a9a35c95ee5b8d1ac4cc7bfef0cc5060391d6cc98e26b33604051610fc59190612800565b60405180910390a290565b610fe1610fdb611312565b83611558565b611020576040517f08c379a000000000000000000000000000000000000000000000000000000000815260040161101790613031565b60405180910390fd5b61102c84848484611bd5565b50505050565b606061103d826112c7565b600060066000848152602001908152602001600020805461105d90612e40565b80601f016020809104026020016040519081016040528092919081815260200182805461108990612e40565b80156110d65780601f106110ab576101008083540402835291602001916110d6565b820191906000526020600020905b8154815290600101906020018083116110b957829003601f168201915b5050505050905060006110e7611c31565b90506000815114156110fd578192505050611140565b60008251111561113257808260405160200161111a9291906133db565b60405160208183030381529060405292505050611140565b61113b84611c48565b925050505b919050565b6000600560008473ffffffffffffffffffffffffffffffffffffffff1673ffffffffffffffffffffffffffffffffffffffff16815260200190815260200160002060008373ffffffffffffffffffffffffffffffffffffffff1673ffffffffffffffffffffffffffffffffffffffff16815260200190815260200160002060009054906101000a900460ff16905092915050565b6111e1611924565b600073ffffffffffffffffffffffffffffffffffffffff168173ffffffffffffffffffffffffffffffffffffffff161415611251576040517f08c379a000000000000000000000000000000000000000000000000000000000815260040161124890613471565b60405180910390fd5b61125a816119a2565b50565b60007f01ffc9a7000000000000000000000000000000000000000000000000000000007bffffffffffffffffffffffffffffffffffffffffffffffffffffffff1916827bffffffffffffffffffffffffffffffffffffffffffffffffffffffff1916149050919050565b6112d081611cb0565b61130f576040517f08c379a0000000000000000000000000000000000000000000000000000000008152600401611306906130e3565b60405180910390fd5b50565b600033905090565b816004600083815260200190815260200160002060006101000a81548173ffffffffffffffffffffffffffffffffffffffff021916908373ffffffffffffffffffffffffffffffffffffffff160217905550808273ffffffffffffffffffffffffffffffffffffffff1661138d83610aaa565b73ffffffffffffffffffffffffffffffffffffffff167f8c5be1e5ebec7d5bd14f71427d1e84f3dd0314c0f7b2291e5b200ac8c7c3b92560405160405180910390a45050565b60006008600084815260200190815260200160002060009054906101000a900473ffffffffffffffffffffffffffffffffffffffff16905060006009549050600060648460008151811061142a57611429613195565b5b602002602001015161143c91906134c0565b9050600061144982610d0c565b90506114558484611cf1565b61151783600a83600281111561146e5761146d612c07565b5b8154811061147f5761147e613195565b5b90600052602060002001805461149490612e40565b80601f01602080910402602001604051908101604052809291908181526020018280546114c090612e40565b801561150d5780601f106114e25761010080835404028352916020019161150d565b820191906000526020600020905b8154815290600101906020018083116114f057829003601f168201915b5050505050611d0f565b7f8a269f26b688e110e9cbd887d163dab35cae678fa353a0292de532c0cac1ecdc81856040516115489291906134f1565b60405180910390a1505050505050565b60008061156483610aaa565b90508073ffffffffffffffffffffffffffffffffffffffff168473ffffffffffffffffffffffffffffffffffffffff1614806115a657506115a58185611145565b5b806115e457508373ffffffffffffffffffffffffffffffffffffffff166115cc8461072d565b73ffffffffffffffffffffffffffffffffffffffff16145b91505092915050565b8273ffffffffffffffffffffffffffffffffffffffff1661160d82610aaa565b73ffffffffffffffffffffffffffffffffffffffff1614611663576040517f08c379a000000000000000000000000000000000000000000000000000000000815260040161165a9061358c565b60405180910390fd5b600073ffffffffffffffffffffffffffffffffffffffff168273ffffffffffffffffffffffffffffffffffffffff1614156116d3576040517f08c379a00000000000000000000000000000000000000000000000000000000081526004016116ca9061361e565b60405180910390fd5b6116e08383836001611d83565b8273ffffffffffffffffffffffffffffffffffffffff1661170082610aaa565b73ffffffffffffffffffffffffffffffffffffffff1614611756576040517f08c379a000000000000000000000000000000000000000000000000000000000815260040161174d9061358c565b60405180910390fd5b6004600082815260200190815260200160002060006101000a81549073ffffffffffffffffffffffffffffffffffffffff02191690556001600360008573ffffffffffffffffffffffffffffffffffffffff1673ffffffffffffffffffffffffffffffffffffffff168152602001908152602001600020600082825403925050819055506001600360008473ffffffffffffffffffffffffffffffffffffffff1673ffffffffffffffffffffffffffffffffffffffff16815260200190815260200160002060008282540192505081905550816002600083815260200190815260200160002060006101000a81548173ffffffffffffffffffffffffffffffffffffffff021916908373ffffffffffffffffffffffffffffffffffffffff160217905550808273ffffffffffffffffffffffffffffffffffffffff168473ffffffffffffffffffffffffffffffffffffffff167fddf252ad1be2c89b69c2b068fc378daa952ba7f163c4a11628f55a4df523b3ef60405160405180910390a46118e28383836001611ea9565b505050565b60006002600083815260200190815260200160002060009054906101000a900473ffffffffffffffffffffffffffffffffffffffff169050919050565b61192c611312565b73ffffffffffffffffffffffffffffffffffffffff1661194a610c07565b73ffffffffffffffffffffffffffffffffffffffff16146119a0576040517f08c379a00000000000000000000000000000000000000000000000000000000081526004016119979061368a565b60405180910390fd5b565b6000600760009054906101000a900473ffffffffffffffffffffffffffffffffffffffff16905081600760006101000a81548173ffffffffffffffffffffffffffffffffffffffff021916908373ffffffffffffffffffffffffffffffffffffffff1602179055508173ffffffffffffffffffffffffffffffffffffffff168173ffffffffffffffffffffffffffffffffffffffff167f8be0079c531659141344cd1fd0a4f28419497f9722a3daafe3b4186f6b6457e060405160405180910390a35050565b8173ffffffffffffffffffffffffffffffffffffffff168373ffffffffffffffffffffffffffffffffffffffff161415611ad7576040517f08c379a0000000000000000000000000000000000000000000000000000000008152600401611ace906136f6565b60405180910390fd5b80600560008573ffffffffffffffffffffffffffffffffffffffff1673ffffffffffffffffffffffffffffffffffffffff16815260200190815260200160002060008473ffffffffffffffffffffffffffffffffffffffff1673ffffffffffffffffffffffffffffffffffffffff16815260200190815260200160002060006101000a81548160ff0219169083151502179055508173ffffffffffffffffffffffffffffffffffffffff168373ffffffffffffffffffffffffffffffffffffffff167f17307eab39ab6107e8899845ad3d59bd9653f200f220920489ca2b5937696c3183604051611bc89190612686565b60405180910390a3505050565b611be08484846115ed565b611bec84848484611eaf565b611c2b576040517f08c379a0000000000000000000000000000000000000000000000000000000008152600401611c2290613788565b60405180910390fd5b50505050565b606060405180602001604052806000815250905090565b6060611c53826112c7565b6000611c5d611c31565b90506000815111611c7d5760405180602001604052806000815250611ca8565b80611c8784612046565b604051602001611c989291906133db565b6040516020818303038152906040525b915050919050565b60008073ffffffffffffffffffffffffffffffffffffffff16611cd2836118e7565b73ffffffffffffffffffffffffffffffffffffffff1614159050919050565b611d0b82826040518060200160405280600081525061211e565b5050565b611d1882611cb0565b611d57576040517f08c379a0000000000000000000000000000000000000000000000000000000008152600401611d4e9061381a565b60405180910390fd5b80600660008481526020019081526020016000209080519060200190611d7e92919061252f565b505050565b6001811115611ea357600073ffffffffffffffffffffffffffffffffffffffff168473ffffffffffffffffffffffffffffffffffffffff1614611e175780600360008673ffffffffffffffffffffffffffffffffffffffff1673ffffffffffffffffffffffffffffffffffffffff1681526020019081526020016000206000828254611e0f919061383a565b925050819055505b600073ffffffffffffffffffffffffffffffffffffffff168373ffffffffffffffffffffffffffffffffffffffff1614611ea25780600360008573ffffffffffffffffffffffffffffffffffffffff1673ffffffffffffffffffffffffffffffffffffffff1681526020019081526020016000206000828254611e9a91906131f3565b925050819055505b5b50505050565b50505050565b6000611ed08473ffffffffffffffffffffffffffffffffffffffff16612179565b15612039578373ffffffffffffffffffffffffffffffffffffffff1663150b7a02611ef9611312565b8786866040518563ffffffff1660e01b8152600401611f1b94939291906138c3565b602060405180830381600087803b158015611f3557600080fd5b505af1925050508015611f6657506040513d601f19601f82011682018060405250810190611f639190613924565b60015b611fe9573d8060008114611f96576040519150601f19603f3d011682016040523d82523d6000602084013e611f9b565b606091505b50600081511415611fe1576040517f08c379a0000000000000000000000000000000000000000000000000000000008152600401611fd890613788565b60405180910390fd5b805181602001fd5b63150b7a0260e01b7bffffffffffffffffffffffffffffffffffffffffffffffffffffffff1916817bffffffffffffffffffffffffffffffffffffffffffffffffffffffff19161491505061203e565b600190505b949350505050565b6060600060016120558461219c565b01905060008167ffffffffffffffff811115612074576120736128b6565b5b6040519080825280601f01601f1916602001820160405280156120a65781602001600182028036833780820191505090505b509050600082602001820190505b600115612113578080600190039150507f3031323334353637383961626364656600000000000000000000000000000000600a86061a8153600a85816120fd576120fc613491565b5b049450600085141561210e57612113565b6120b4565b819350505050919050565b61212883836122ef565b6121356000848484611eaf565b612174576040517f08c379a000000000000000000000000000000000000000000000000000000000815260040161216b90613788565b60405180910390fd5b505050565b6000808273ffffffffffffffffffffffffffffffffffffffff163b119050919050565b600080600090507a184f03e93ff9f4daa797ed6e38ed64bf6a1f01000000000000000083106121fa577a184f03e93ff9f4daa797ed6e38ed64bf6a1f01000000000000000083816121f0576121ef613491565b5b0492506040810190505b6d04ee2d6d415b85acef81000000008310612237576d04ee2d6d415b85acef8100000000838161222d5761222c613491565b5b0492506020810190505b662386f26fc10000831061226657662386f26fc10000838161225c5761225b613491565b5b0492506010810190505b6305f5e100831061228f576305f5e100838161228557612284613491565b5b0492506008810190505b61271083106122b45761271083816122aa576122a9613491565b5b0492506004810190505b606483106122d757606483816122cd576122cc613491565b5b0492506002810190505b600a83106122e6576001810190505b80915050919050565b600073ffffffffffffffffffffffffffffffffffffffff168273ffffffffffffffffffffffffffffffffffffffff16141561235f576040517f08c379a00000000000000000000000000000000000000000000000000000000081526004016123569061399d565b60405180910390fd5b61236881611cb0565b156123a8576040517f08c379a000000000000000000000000000000000000000000000000000000000815260040161239f90613a09565b60405180910390fd5b6123b6600083836001611d83565b6123bf81611cb0565b156123ff576040517f08c379a00000000000000000000000000000000000000000000000000000000081526004016123f690613a09565b60405180910390fd5b6001600360008473ffffffffffffffffffffffffffffffffffffffff1673ffffffffffffffffffffffffffffffffffffffff16815260200190815260200160002060008282540192505081905550816002600083815260200190815260200160002060006101000a81548173ffffffffffffffffffffffffffffffffffffffff021916908373ffffffffffffffffffffffffffffffffffffffff160217905550808273ffffffffffffffffffffffffffffffffffffffff16600073ffffffffffffffffffffffffffffffffffffffff167fddf252ad1be2c89b69c2b068fc378daa952ba7f163c4a11628f55a4df523b3ef60405160405180910390a4612509600083836001611ea9565b5050565b6040518060600160405280600390602082028036833780820191505090505090565b82805461253b90612e40565b90600052602060002090601f01602090048101928261255d57600085556125a4565b82601f1061257657805160ff19168380011785556125a4565b828001600101855582156125a4579182015b828111156125a3578251825591602001919060010190612588565b5b5090506125b191906125b5565b5090565b5b808211156125ce5760008160009055506001016125b6565b5090565b6000604051905090565b600080fd5b600080fd5b60007fffffffff0000000000000000000000000000000000000000000000000000000082169050919050565b61261b816125e6565b811461262657600080fd5b50565b60008135905061263881612612565b92915050565b600060208284031215612654576126536125dc565b5b600061266284828501612629565b91505092915050565b60008115159050919050565b6126808161266b565b82525050565b600060208201905061269b6000830184612677565b92915050565b600081519050919050565b600082825260208201905092915050565b60005b838110156126db5780820151818401526020810190506126c0565b838111156126ea576000848401525b50505050565b6000601f19601f8301169050919050565b600061270c826126a1565b61271681856126ac565b93506127268185602086016126bd565b61272f816126f0565b840191505092915050565b600060208201905081810360008301526127548184612701565b905092915050565b6000819050919050565b61276f8161275c565b811461277a57600080fd5b50565b60008135905061278c81612766565b92915050565b6000602082840312156127a8576127a76125dc565b5b60006127b68482850161277d565b91505092915050565b600073ffffffffffffffffffffffffffffffffffffffff82169050919050565b60006127ea826127bf565b9050919050565b6127fa816127df565b82525050565b600060208201905061281560008301846127f1565b92915050565b612824816127df565b811461282f57600080fd5b50565b6000813590506128418161281b565b92915050565b6000806040838503121561285e5761285d6125dc565b5b600061286c85828601612832565b925050602061287d8582860161277d565b9150509250929050565b6128908161275c565b82525050565b60006020820190506128ab6000830184612887565b92915050565b600080fd5b7f4e487b7100000000000000000000000000000000000000000000000000000000600052604160045260246000fd5b6128ee826126f0565b810181811067ffffffffffffffff8211171561290d5761290c6128b6565b5b80604052505050565b60006129206125d2565b905061292c82826128e5565b919050565b600067ffffffffffffffff82111561294c5761294b6128b6565b5b602082029050602081019050919050565b600080fd5b600061297561297084612931565b612916565b905080838252602082019050602084028301858111156129985761299761295d565b5b835b818110156129c157806129ad888261277d565b84526020840193505060208101905061299a565b5050509392505050565b600082601f8301126129e0576129df6128b1565b5b81356129f0848260208601612962565b91505092915050565b60008060408385031215612a1057612a0f6125dc565b5b6000612a1e8582860161277d565b925050602083013567ffffffffffffffff811115612a3f57612a3e6125e1565b5b612a4b858286016129cb565b9150509250929050565b600080600060608486031215612a6e57612a6d6125dc565b5b6000612a7c86828701612832565b9350506020612a8d86828701612832565b9250506040612a9e8682870161277d565b9150509250925092565b600060039050919050565b600081905092915050565b6000819050919050565b612ad18161275c565b82525050565b6000612ae38383612ac8565b60208301905092915050565b6000602082019050919050565b612b0581612aa8565b612b0f8184612ab3565b9250612b1a82612abe565b8060005b83811015612b4b578151612b328782612ad7565b9650612b3d83612aef565b925050600181019050612b1e565b505050505050565b6000606082019050612b686000830184612afc565b92915050565b600060208284031215612b8457612b836125dc565b5b6000612b9284828501612832565b91505092915050565b612ba48161266b565b8114612baf57600080fd5b50565b600081359050612bc181612b9b565b92915050565b60008060408385031215612bde57612bdd6125dc565b5b6000612bec85828601612832565b9250506020612bfd85828601612bb2565b9150509250929050565b7f4e487b7100000000000000000000000000000000000000000000000000000000600052602160045260246000fd5b60038110612c4757612c46612c07565b5b50565b6000819050612c5882612c36565b919050565b6000612c6882612c4a565b9050919050565b612c7881612c5d565b82525050565b6000602082019050612c936000830184612c6f565b92915050565b600080fd5b600067ffffffffffffffff821115612cb957612cb86128b6565b5b612cc2826126f0565b9050602081019050919050565b82818337600083830152505050565b6000612cf1612cec84612c9e565b612916565b905082815260208101848484011115612d0d57612d0c612c99565b5b612d18848285612ccf565b509392505050565b600082601f830112612d3557612d346128b1565b5b8135612d45848260208601612cde565b91505092915050565b60008060008060808587031215612d6857612d676125dc565b5b6000612d7687828801612832565b9450506020612d8787828801612832565b9350506040612d988782880161277d565b925050606085013567ffffffffffffffff811115612db957612db86125e1565b5b612dc587828801612d20565b91505092959194509250565b60008060408385031215612de857612de76125dc565b5b6000612df685828601612832565b9250506020612e0785828601612832565b9150509250929050565b7f4e487b7100000000000000000000000000000000000000000000000000000000600052602260045260246000fd5b60006002820490506001821680612e5857607f821691505b60208210811415612e6c57612e6b612e11565b5b50919050565b7f4552433732313a20617070726f76616c20746f2063757272656e74206f776e6560008201527f7200000000000000000000000000000000000000000000000000000000000000602082015250565b6000612ece6021836126ac565b9150612ed982612e72565b604082019050919050565b60006020820190508181036000830152612efd81612ec1565b9050919050565b7f4552433732313a20617070726f76652063616c6c6572206973206e6f7420746f60008201527f6b656e206f776e6572206f7220617070726f76656420666f7220616c6c000000602082015250565b6000612f60603d836126ac565b9150612f6b82612f04565b604082019050919050565b60006020820190508181036000830152612f8f81612f53565b9050919050565b6000604082019050612fab60008301856127f1565b612fb860208301846127f1565b9392505050565b7f4552433732313a2063616c6c6572206973206e6f7420746f6b656e206f776e6560008201527f72206f7220617070726f76656400000000000000000000000000000000000000602082015250565b600061301b602d836126ac565b915061302682612fbf565b604082019050919050565b6000602082019050818103600083015261304a8161300e565b9050919050565b600081905092915050565b50565b600061306c600083613051565b91506130778261305c565b600082019050919050565b600061308d8261305f565b9150819050919050565b7f4552433732313a20696e76616c696420746f6b656e2049440000000000000000600082015250565b60006130cd6018836126ac565b91506130d882613097565b602082019050919050565b600060208201905081810360008301526130fc816130c0565b9050919050565b7f4552433732313a2061646472657373207a65726f206973206e6f74206120766160008201527f6c6964206f776e65720000000000000000000000000000000000000000000000602082015250565b600061315f6029836126ac565b915061316a82613103565b604082019050919050565b6000602082019050818103600083015261318e81613152565b9050919050565b7f4e487b7100000000000000000000000000000000000000000000000000000000600052603260045260246000fd5b7f4e487b7100000000000000000000000000000000000000000000000000000000600052601160045260246000fd5b60006131fe8261275c565b91506132098361275c565b9250827fffffffffffffffffffffffffffffffffffffffffffffffffffffffffffffffff0382111561323e5761323d6131c4565b5b828201905092915050565b60006132548261275c565b91507fffffffffffffffffffffffffffffffffffffffffffffffffffffffffffffffff821415613287576132866131c4565b5b600182019050919050565b6000819050919050565b6132a581613292565b82525050565b600067ffffffffffffffff82169050919050565b6132c8816132ab565b82525050565b600061ffff82169050919050565b6132e5816132ce565b82525050565b600063ffffffff82169050919050565b613304816132eb565b82525050565b600060a08201905061331f600083018861329c565b61332c60208301876132bf565b61333960408301866132dc565b61334660608301856132fb565b61335360808301846132fb565b9695505050505050565b60008151905061336c81612766565b92915050565b600060208284031215613388576133876125dc565b5b60006133968482850161335d565b91505092915050565b600081905092915050565b60006133b5826126a1565b6133bf818561339f565b93506133cf8185602086016126bd565b80840191505092915050565b60006133e782856133aa565b91506133f382846133aa565b91508190509392505050565b7f4f776e61626c653a206e6577206f776e657220697320746865207a65726f206160008201527f6464726573730000000000000000000000000000000000000000000000000000602082015250565b600061345b6026836126ac565b9150613466826133ff565b604082019050919050565b6000602082019050818103600083015261348a8161344e565b9050919050565b7f4e487b7100000000000000000000000000000000000000000000000000000000600052601260045260246000fd5b60006134cb8261275c565b91506134d68361275c565b9250826134e6576134e5613491565b5b828206905092915050565b60006040820190506135066000830185612c6f565b61351360208301846127f1565b9392505050565b7f4552433732313a207472616e736665722066726f6d20696e636f72726563742060008201527f6f776e6572000000000000000000000000000000000000000000000000000000602082015250565b60006135766025836126ac565b91506135818261351a565b604082019050919050565b600060208201905081810360008301526135a581613569565b9050919050565b7f4552433732313a207472616e7366657220746f20746865207a65726f2061646460008201527f7265737300000000000000000000000000000000000000000000000000000000602082015250565b60006136086024836126ac565b9150613613826135ac565b604082019050919050565b60006020820190508181036000830152613637816135fb565b9050919050565b7f4f776e61626c653a2063616c6c6572206973206e6f7420746865206f776e6572600082015250565b60006136746020836126ac565b915061367f8261363e565b602082019050919050565b600060208201905081810360008301526136a381613667565b9050919050565b7f4552433732313a20617070726f766520746f2063616c6c657200000000000000600082015250565b60006136e06019836126ac565b91506136eb826136aa565b602082019050919050565b6000602082019050818103600083015261370f816136d3565b9050919050565b7f4552433732313a207472616e7366657220746f206e6f6e20455243373231526560008201527f63656976657220696d706c656d656e7465720000000000000000000000000000602082015250565b60006137726032836126ac565b915061377d82613716565b604082019050919050565b600060208201905081810360008301526137a181613765565b9050919050565b7f45524337323155524953746f726167653a2055524920736574206f66206e6f6e60008201527f6578697374656e7420746f6b656e000000000000000000000000000000000000602082015250565b6000613804602e836126ac565b915061380f826137a8565b604082019050919050565b60006020820190508181036000830152613833816137f7565b9050919050565b60006138458261275c565b91506138508361275c565b925082821015613863576138626131c4565b5b828203905092915050565b600081519050919050565b600082825260208201905092915050565b60006138958261386e565b61389f8185613879565b93506138af8185602086016126bd565b6138b8816126f0565b840191505092915050565b60006080820190506138d860008301876127f1565b6138e560208301866127f1565b6138f26040830185612887565b8181036060830152613904818461388a565b905095945050505050565b60008151905061391e81612612565b92915050565b60006020828403121561393a576139396125dc565b5b60006139488482850161390f565b91505092915050565b7f4552433732313a206d696e7420746f20746865207a65726f2061646472657373600082015250565b60006139876020836126ac565b915061399282613951565b602082019050919050565b600060208201905081810360008301526139b68161397a565b9050919050565b7f4552433732313a20746f6b656e20616c7265616479206d696e74656400000000600082015250565b60006139f3601c836126ac565b91506139fe826139bd565b602082019050919050565b60006020820190508181036000830152613a22816139e6565b905091905056fea264697066735822122013fa25748a908a0969ad71290ce320b421ef469fffb0b14f5cf1df05486f398264736f6c63430008080033",
  "linkReferences": {},
  "deployedLinkReferences": {}
}